:1000000026C040C03FC03EC03DC0CCC03BC03AC08F
:1000100039C038C037C036C035C034C033C0000026
:10002000000036000000000037000000000038002B
:10003000020202020202020202020102040810206D
:100040002004100801020000040000000000112438
:100050001FBECFE5D2E0DEBFCDBF10E0A0E6B0E02E
:10006000ECEFF4E002C005900D92A036B107D9F78D
:1000700020E0A0E6B0E001C01D92AD36B207E1F786
:1000800020D13AC2BDCF90E0FC01EC5BFF4F349130
:10009000FC01E65CFF4F2491FC01E05DFF4FE49121
:1000A000EE23B9F0332329F0323001F198F43130E6
:1000B000C9F0F0E0EE0FFF1FE65DFF4FA591B49190
:1000C0008FB7F894EC91611114C020952E232C93D6
:1000D0008FBF0895333011F0343059F78CB58F7DD0
:1000E0008CBDE7CF8AB58F778ABDE3CF8AB58F7D88
:1000F000FBCF2E2BECCFCF93DF9390E0FC01E65C9F
:10010000FF4F2491805D9F4FFC0184918823D1F0A3
:1001100090E0880F991FFC01EC5DFF4FA591B49111
:10012000FC01E65DFF4FC591D49161110EC09FB7F0
:10013000F8948C91E22FE0958E238C932881E22312
:10014000E8839FBFDF91CF9108958FB7F894EC912A
:10015000E22BEC938FBFF6CF3FB7F8948091690004
:1001600090916A00A0916B00B0916C0022B708B624
:1001700001FE05C02F3F19F00196A11DB11D3FBF23
:10018000BA2FA92F982F8827BC01CD01620F711DAE
:10019000811D911D42E0660F771F881F991F4A95A8
:1001A000D1F708951F920F920FB60F9211242F933B
:1001B0003F938F939F93AF93BF93809165009091EE
:1001C0006600A0916700B09168003091640023E060
:1001D000230F2D3758F50196A11DB11D2093640002
:1001E0008093650090936600A0936700B0936800C9
:1001F0008091690090916A00A0916B00B0916C00B1
:100200000196A11DB11D8093690090936A00A0938F
:100210006B00B0936C00BF91AF919F918F913F9114
:100220002F910F900FBE0F901F90189526E8230F67
:100230000296A11DB11DD2CFCF92DF92EF92FF9215
:100240000F931F93E82FF92F05C0015011092109C1
:10025000310961F1908196239417B9F305C00150DB
:1002600011092109310911F1908196239413F7CFD7
:10027000C12CD12CE12CF12C0AC08FEFC81AD80A5E
:10028000E80AF80A0C151D052E053F0579F0808156
:100290008623841791F36C2D7D2D8E2D9F2D1F911C
:1002A0000F91FF90EF90DF90CF90089560E070E0A5
:1002B00080E090E01F910F91FF90EF90DF90CF9042
:1002C000089578948AB582608ABD8AB581608ABDB6
:1002D00083B7826083BF83B7816083BF89B7826041
:1002E00089BF80B7826080BF80B7816080BF329A4B
:1002F000319A309A379A8CB580648CBD60E082E088
:10030000FADE61E081E0F7DE26E0422E24E0522EA4
:10031000612C712C35E4232E30E0332EC0E0D0E088
:10032000ECE3F0E06491E2E3F0E08491E82FF0E0A8
:10033000EE0FFF1FE25EFF4F8591949100E412E4FF
:100340002FE030E0462F78DF6115710581059105BA
:1003500029F06F5F7F4F8F4F9F4F9F7060936000BA
:100360007093610080936200909363006C34F4E0BA
:100370007F078105910550F560E081E084DEECDEC9
:100380006B017C0184E6882E912CA12CB12CE4DE3B
:100390006C197D098E099F09683E7340810591059E
:1003A000B0F321E0821A9108A108B10888EEC80EC6
:1003B00083E0D81EE11CF11C81149104A104B10456
:1003C00031F7209709F4ACCF1BDEAACF6F5C7340E6
:1003D000810991092BEE30E040E050E036D0A301D6
:1003E00092014CD0D22EE22EF32E61E081E083DE2A
:1003F000E114F10409F22FEFE216F10411F461E0C7
:10040000BCCFF10184918230B1F038F4813071F0C9
:10041000F0E8EF16F1049CF7AFCF833089F0843019
:10042000B9F78CB580628CBDDBBCA9CF8AB580687A
:100430008ABDD9BCA4CF8AB580628ABDD8BC9FCF03
:100440008CB580628CBDDEBC9ACFEE27FF27AA2731
:10045000BB2708C0A20FB31FE41FF51F220F331FD5
:10046000441F551F969587957795679598F370402B
:10047000A9F7009799F7BD01CF010895052E97FBC5
:1004800016F400940FD057FD05D014D007FC02D00D
:1004900046F408C050954095309521953F4F4F4FF9
:1004A0005F4F089590958095709561957F4F8F4F20
:1004B0009F4F0895A1E21A2EAA1BBB1BFD010DC080
:1004C000AA1FBB1FEE1FFF1FA217B307E407F50704
:1004D00020F0A21BB30BE40BF50B661F771F881FE0
:1004E000991F1A9469F760957095809590959B0176
:0C04F000AC01BD01CF010895F894FFCFCE
:00000001FF
